{
  "contractName": "Ballot",
  "abi": [
    {
      "constant": true,
      "inputs": [],
      "name": "stage",
      "outputs": [
        {
          "name": "",
          "type": "uint8"
        }
      ],
      "payable": false,
      "stateMutability": "view",
      "type": "function"
    },
    {
      "inputs": [
        {
          "name": "_numProposals",
          "type": "uint8"
        }
      ],
      "payable": false,
      "stateMutability": "nonpayable",
      "type": "constructor"
    },
    {
      "anonymous": false,
      "inputs": [],
      "name": "votingCompleted",
      "type": "event"
    },
    {
      "constant": false,
      "inputs": [
        {
          "name": "toVoter",
          "type": "address"
        }
      ],
      "name": "register",
      "outputs": [],
      "payable": false,
      "stateMutability": "nonpayable",
      "type": "function"
    },
    {
      "constant": false,
      "inputs": [
        {
          "name": "toProposal",
          "type": "uint8"
        }
      ],
      "name": "vote",
      "outputs": [],
      "payable": false,
      "stateMutability": "nonpayable",
      "type": "function"
    },
    {
      "constant": true,
      "inputs": [],
      "name": "winningProposal",
      "outputs": [
        {
          "name": "_winningProposal",
          "type": "uint8"
        }
      ],
      "payable": false,
      "stateMutability": "view",
      "type": "function"
    }
  ],
  "bytecode": "0x608060405260008060006101000a81548160ff0219169083600381111561002257fe5b021790555034801561003357600080fd5b506040516020806107178339810180604052810190808051906020019092919050505033600060016101000a81548173ffffffffffffffffffffffffffffffffffffffff021916908373ffffffffffffffffffffffffffffffffffffffff1602179055506002600160008060019054906101000a900473ffffffffffffffffffffffffffffffffffffffff1673ffffffffffffffffffffffffffffffffffffffff1673ffffffffffffffffffffffffffffffffffffffff168152602001908152602001600020600001819055508060ff166002816101119190610142565b5060016000806101000a81548160ff0219169083600381111561013057fe5b02179055504260038190555050610195565b81548183558181111561016957818360005260206000209182019101610168919061016e565b5b505050565b61019291905b8082111561018e5760008082016000905550600101610174565b5090565b90565b610573806101a46000396000f300608060405260043610610062576000357c0100000000000000000000000000000000000000000000000000000000900463ffffffff1680634420e48614610067578063609ff1bd146100aa578063b3f98adc146100db578063c040e6b81461010b575b600080fd5b34801561007357600080fd5b506100a8600480360381019080803573ffffffffffffffffffffffffffffffffffffffff169060200190929190505050610144565b005b3480156100b657600080fd5b506100bf610303565b604051808260ff1660ff16815260200191505060405180910390f35b3480156100e757600080fd5b50610109600480360381019080803560ff1690602001909291905050506103c1565b005b34801561011757600080fd5b50610120610535565b6040518082600381111561013057fe5b60ff16815260200191505060405180910390f35b600180600381111561015257fe5b6000809054906101000a900460ff16600381111561016c57fe5b14151561017857600080fd5b600060019054906101000a900473ffffffffffffffffffffffffffffffffffffffff1673ffffffffffffffffffffffffffffffffffffffff163373ffffffffffffffffffffffffffffffffffffffff161415806102215750600160008373ffffffffffffffffffffffffffffffffffffffff1673ffffffffffffffffffffffffffffffffffffffff16815260200190815260200160002060010160009054906101000a900460ff165b1561022b576102ff565b60018060008473ffffffffffffffffffffffffffffffffffffffff1673ffffffffffffffffffffffffffffffffffffffff168152602001908152602001600020600001819055506000600160008473ffffffffffffffffffffffffffffffffffffffff1673ffffffffffffffffffffffffffffffffffffffff16815260200190815260200160002060010160006101000a81548160ff021916908315150217905550601e600354014211156102fe5760026000806101000a81548160ff021916908360038111156102f857fe5b02179055505b5b5050565b6000806000600380600381111561031657fe5b6000809054906101000a900460ff16600381111561033057fe5b14151561033c57600080fd5b60009250600091505b6002805490508260ff1610156103af578260028360ff1681548110151561036857fe5b906000526020600020016000015411156103a25760028260ff1681548110151561038e57fe5b906000526020600020016000015492508193505b8180600101925050610345565b6000831115156103bb57fe5b50505090565b600060028060038111156103d157fe5b6000809054906101000a900460ff1660038111156103eb57fe5b1415156103f757600080fd5b600160003373ffffffffffffffffffffffffffffffffffffffff1673ffffffffffffffffffffffffffffffffffffffff16815260200190815260200160002091508160010160009054906101000a900460ff168061045d57506002805490508360ff1610155b1561046757610530565b60018260010160006101000a81548160ff021916908315150217905550828260010160016101000a81548160ff021916908360ff160217905550816000015460028460ff168154811015156104b857fe5b9060005260206000200160000160008282540192505081905550601e6003540142111561052f5760036000806101000a81548160ff021916908360038111156104fd57fe5b02179055507f6ac0c89219f0135e3a87cecdf1851abced71da933a0a00e1eada0ef03538235160405160405180910390a15b5b505050565b6000809054906101000a900460ff16815600a165627a7a72305820f303582cfab2efed8d9764240aa4d997c7b1531f0cbf8e162bb1fecf1422fd550029",
  "source": "pragma solidity ^0.4.0;\r\ncontract Ballot {\r\n\r\n    struct Voter {\r\n        uint weight;\r\n        bool voted;\r\n        uint8 vote;\r\n        address delegate;\r\n    }\r\n    struct Proposal {\r\n        uint voteCount;\r\n    }\r\n    enum Stage {Init,Reg, Vote, Done}\r\n    Stage public stage = Stage.Init;\r\n    \r\n    address chairperson;\r\n    mapping(address => Voter) voters;\r\n    Proposal[] proposals;\r\n\r\n    event votingCompleted();\r\n    \r\n    uint startTime;\r\n    //modifiers\r\n   modifier validStage(Stage reqStage)\r\n    { require(stage == reqStage);\r\n      _;\r\n    }\r\n\r\n\r\n    /// Create a new ballot with $(_numProposals) different proposals.\r\n    function Ballot(uint8 _numProposals) public  {\r\n        chairperson = msg.sender;\r\n        voters[chairperson].weight = 2; // weight is 2 for testing purposes\r\n        proposals.length = _numProposals;\r\n        stage = Stage.Reg;\r\n        startTime = now;\r\n    }\r\n\r\n    /// Give $(toVoter) the right to vote on this ballot.\r\n    /// May only be called by $(chairperson).\r\n    function register(address toVoter) public validStage(Stage.Reg) {\r\n        //if (stage != Stage.Reg) {return;}\r\n        if (msg.sender != chairperson || voters[toVoter].voted) return;\r\n        voters[toVoter].weight = 1;\r\n        voters[toVoter].voted = false;\r\n        if (now > (startTime+ 30 seconds)) {stage = Stage.Vote; }        \r\n    }\r\n\r\n    /// Give a single vote to proposal $(toProposal).\r\n    function vote(uint8 toProposal) public validStage(Stage.Vote)  {\r\n       // if (stage != Stage.Vote) {return;}\r\n        Voter storage sender = voters[msg.sender];\r\n        if (sender.voted || toProposal >= proposals.length) return;\r\n        sender.voted = true;\r\n        sender.vote = toProposal;   \r\n        proposals[toProposal].voteCount += sender.weight;\r\n        if (now > (startTime+ 30 seconds)) {stage = Stage.Done; votingCompleted();}        \r\n        \r\n    }\r\n\r\n    function winningProposal() public validStage(Stage.Done) constant returns (uint8 _winningProposal) {\r\n       //if(stage != Stage.Done) {return;}\r\n        uint256 winningVoteCount = 0;\r\n        for (uint8 prop = 0; prop < proposals.length; prop++)\r\n            if (proposals[prop].voteCount > winningVoteCount) {\r\n                winningVoteCount = proposals[prop].voteCount;\r\n                _winningProposal = prop;\r\n            }\r\n       assert (winningVoteCount > 0);\r\n\r\n    }\r\n}\r\n\r\n\r\n\r\n",
  "sourcePath": "E:\\Blockchain\\Coursera\\TRuffle\\Ballot1\\contracts\\Ballot.sol",
  "compiler": {
    "name": "solc",
    "version": "0.4.25+commit.59dbf8f1.Emscripten.clang"
  },
  "schemaVersion": "2.0.2",
  "updatedAt": "2022-06-27T05:29:40.009Z"
}